{
  "_format": "hh-sol-artifact-1",
  "contractName": "Smile",
  "sourceName": "contracts/Smile.sol",
  "abi": [
    {
      "inputs": [
        {
          "internalType": "string",
          "name": "name",
          "type": "string"
        },
        {
          "internalType": "string",
          "name": "symbol",
          "type": "string"
        }
      ],
      "stateMutability": "nonpayable",
      "type": "constructor"
    },
    {
      "anonymous": false,
      "inputs": [
        {
          "indexed": true,
          "internalType": "address",
          "name": "owner",
          "type": "address"
        },
        {
          "indexed": true,
          "internalType": "address",
          "name": "approved",
          "type": "address"
        },
        {
          "indexed": true,
          "internalType": "uint256",
          "name": "tokenId",
          "type": "uint256"
        }
      ],
      "name": "Approval",
      "type": "event"
    },
    {
      "anonymous": false,
      "inputs": [
        {
          "indexed": true,
          "internalType": "address",
          "name": "owner",
          "type": "address"
        },
        {
          "indexed": true,
          "internalType": "address",
          "name": "operator",
          "type": "address"
        },
        {
          "indexed": false,
          "internalType": "bool",
          "name": "approved",
          "type": "bool"
        }
      ],
      "name": "ApprovalForAll",
      "type": "event"
    },
    {
      "anonymous": false,
      "inputs": [
        {
          "indexed": true,
          "internalType": "address",
          "name": "from",
          "type": "address"
        },
        {
          "indexed": true,
          "internalType": "address",
          "name": "to",
          "type": "address"
        },
        {
          "indexed": true,
          "internalType": "uint256",
          "name": "tokenId",
          "type": "uint256"
        }
      ],
      "name": "Transfer",
      "type": "event"
    },
    {
      "inputs": [
        {
          "internalType": "address",
          "name": "to",
          "type": "address"
        },
        {
          "internalType": "uint256",
          "name": "tokenId",
          "type": "uint256"
        }
      ],
      "name": "approve",
      "outputs": [],
      "stateMutability": "nonpayable",
      "type": "function"
    },
    {
      "inputs": [
        {
          "internalType": "address",
          "name": "owner",
          "type": "address"
        }
      ],
      "name": "balanceOf",
      "outputs": [
        {
          "internalType": "uint256",
          "name": "",
          "type": "uint256"
        }
      ],
      "stateMutability": "view",
      "type": "function"
    },
    {
      "inputs": [
        {
          "internalType": "uint256",
          "name": "tokenId",
          "type": "uint256"
        }
      ],
      "name": "getApproved",
      "outputs": [
        {
          "internalType": "address",
          "name": "",
          "type": "address"
        }
      ],
      "stateMutability": "view",
      "type": "function"
    },
    {
      "inputs": [
        {
          "internalType": "address",
          "name": "owner",
          "type": "address"
        },
        {
          "internalType": "address",
          "name": "operator",
          "type": "address"
        }
      ],
      "name": "isApprovedForAll",
      "outputs": [
        {
          "internalType": "bool",
          "name": "",
          "type": "bool"
        }
      ],
      "stateMutability": "view",
      "type": "function"
    },
    {
      "inputs": [
        {
          "internalType": "string",
          "name": "_tokenURI",
          "type": "string"
        }
      ],
      "name": "mint",
      "outputs": [],
      "stateMutability": "nonpayable",
      "type": "function"
    },
    {
      "inputs": [],
      "name": "name",
      "outputs": [
        {
          "internalType": "string",
          "name": "",
          "type": "string"
        }
      ],
      "stateMutability": "view",
      "type": "function"
    },
    {
      "inputs": [
        {
          "internalType": "uint256",
          "name": "tokenId",
          "type": "uint256"
        }
      ],
      "name": "ownerOf",
      "outputs": [
        {
          "internalType": "address",
          "name": "",
          "type": "address"
        }
      ],
      "stateMutability": "view",
      "type": "function"
    },
    {
      "inputs": [
        {
          "internalType": "address",
          "name": "from",
          "type": "address"
        },
        {
          "internalType": "address",
          "name": "to",
          "type": "address"
        },
        {
          "internalType": "uint256",
          "name": "tokenId",
          "type": "uint256"
        }
      ],
      "name": "safeTransferFrom",
      "outputs": [],
      "stateMutability": "nonpayable",
      "type": "function"
    },
    {
      "inputs": [
        {
          "internalType": "address",
          "name": "from",
          "type": "address"
        },
        {
          "internalType": "address",
          "name": "to",
          "type": "address"
        },
        {
          "internalType": "uint256",
          "name": "tokenId",
          "type": "uint256"
        },
        {
          "internalType": "bytes",
          "name": "_data",
          "type": "bytes"
        }
      ],
      "name": "safeTransferFrom",
      "outputs": [],
      "stateMutability": "nonpayable",
      "type": "function"
    },
    {
      "inputs": [
        {
          "internalType": "address",
          "name": "operator",
          "type": "address"
        },
        {
          "internalType": "bool",
          "name": "approved",
          "type": "bool"
        }
      ],
      "name": "setApprovalForAll",
      "outputs": [],
      "stateMutability": "nonpayable",
      "type": "function"
    },
    {
      "inputs": [
        {
          "internalType": "bytes4",
          "name": "interfaceId",
          "type": "bytes4"
        }
      ],
      "name": "supportsInterface",
      "outputs": [
        {
          "internalType": "bool",
          "name": "",
          "type": "bool"
        }
      ],
      "stateMutability": "view",
      "type": "function"
    },
    {
      "inputs": [],
      "name": "symbol",
      "outputs": [
        {
          "internalType": "string",
          "name": "",
          "type": "string"
        }
      ],
      "stateMutability": "view",
      "type": "function"
    },
    {
      "inputs": [],
      "name": "tokenCounter",
      "outputs": [
        {
          "internalType": "uint256",
          "name": "",
          "type": "uint256"
        }
      ],
      "stateMutability": "view",
      "type": "function"
    },
    {
      "inputs": [
        {
          "internalType": "uint256",
          "name": "_tokenId",
          "type": "uint256"
        }
      ],
      "name": "tokenURI",
      "outputs": [
        {
          "internalType": "string",
          "name": "",
          "type": "string"
        }
      ],
      "stateMutability": "view",
      "type": "function"
    },
    {
      "inputs": [
        {
          "internalType": "address",
          "name": "from",
          "type": "address"
        },
        {
          "internalType": "address",
          "name": "to",
          "type": "address"
        },
        {
          "internalType": "uint256",
          "name": "tokenId",
          "type": "uint256"
        }
      ],
      "name": "transferFrom",
      "outputs": [],
      "stateMutability": "nonpayable",
      "type": "function"
    }
  ],
  "bytecode": "0x60806040523480156200001157600080fd5b5060405162002ea838038062002ea88339818101604052810190620000379190620003f8565b8181816000908051906020019062000051929190620002d6565b5080600190805190602001906200006a929190620002d6565b5050506000600681905550620000c16040518060400160405280600481526020017f6e616d6500000000000000000000000000000000000000000000000000000000815250836200016160201b62000adb1760201c565b6200010d6040518060400160405280600681526020017f73796d626f6c0000000000000000000000000000000000000000000000000000815250826200016160201b62000adb1760201c565b620001596040518060400160405280600a81526020017f6d73672e73656e64657200000000000000000000000000000000000000000000815250336200020760201b62000b771760201c565b5050620006be565b6200020382826040516024016200017a929190620004f1565b6040516020818303038152906040527f4b5c4277000000000000000000000000000000000000000000000000000000007bffffffffffffffffffffffffffffffffffffffffffffffffffffffff19166020820180517bffffffffffffffffffffffffffffffffffffffffffffffffffffffff8381831617835250505050620002ad60201b60201c565b5050565b620002a9828260405160240162000220929190620004bd565b6040516020818303038152906040527f319af333000000000000000000000000000000000000000000000000000000007bffffffffffffffffffffffffffffffffffffffffffffffffffffffff19166020820180517bffffffffffffffffffffffffffffffffffffffffffffffffffffffff8381831617835250505050620002ad60201b60201c565b5050565b60008151905060006a636f6e736f6c652e6c6f679050602083016000808483855afa5050505050565b828054620002e49062000619565b90600052602060002090601f01602090048101928262000308576000855562000354565b82601f106200032357805160ff191683800117855562000354565b8280016001018555821562000354579182015b828111156200035357825182559160200191906001019062000336565b5b50905062000363919062000367565b5090565b5b808211156200038257600081600090555060010162000368565b5090565b60006200039d620003978462000560565b6200052c565b905082815260208101848484011115620003b657600080fd5b620003c3848285620005e3565b509392505050565b600082601f830112620003dd57600080fd5b8151620003ef84826020860162000386565b91505092915050565b600080604083850312156200040c57600080fd5b600083015167ffffffffffffffff8111156200042757600080fd5b6200043585828601620003cb565b925050602083015167ffffffffffffffff8111156200045357600080fd5b6200046185828601620003cb565b9150509250929050565b6200047681620005af565b82525050565b6000620004898262000593565b6200049581856200059e565b9350620004a7818560208601620005e3565b620004b281620006ad565b840191505092915050565b60006040820190508181036000830152620004d981856200047c565b9050620004ea60208301846200046b565b9392505050565b600060408201905081810360008301526200050d81856200047c565b905081810360208301526200052381846200047c565b90509392505050565b6000604051905081810181811067ffffffffffffffff821117156200055657620005556200067e565b5b8060405250919050565b600067ffffffffffffffff8211156200057e576200057d6200067e565b5b601f19601f8301169050602081019050919050565b600081519050919050565b600082825260208201905092915050565b6000620005bc82620005c3565b9050919050565b600073ffffffffffffffffffffffffffffffffffffffff82169050919050565b60005b8381101562000603578082015181840152602081019050620005e6565b8381111562000613576000848401525b50505050565b600060028204905060018216806200063257607f821691505b602082108114156200064957620006486200064f565b5b50919050565b7f4e487b7100000000000000000000000000000000000000000000000000000000600052602260045260246000fd5b7f4e487b7100000000000000000000000000000000000000000000000000000000600052604160045260246000fd5b6000601f19601f8301169050919050565b6127da80620006ce6000396000f3fe608060405234801561001057600080fd5b50600436106100f55760003560e01c806370a0823111610097578063c87b56dd11610066578063c87b56dd14610282578063d082e381146102b2578063d85d3d27146102d0578063e985e9c5146102ec576100f5565b806370a08231146101fc57806395d89b411461022c578063a22cb4651461024a578063b88d4fde14610266576100f5565b8063095ea7b3116100d3578063095ea7b31461017857806323b872dd1461019457806342842e0e146101b05780636352211e146101cc576100f5565b806301ffc9a7146100fa57806306fdde031461012a578063081812fc14610148575b600080fd5b610114600480360381019061010f9190611ac3565b61031c565b60405161012191906121a7565b60405180910390f35b6101326103fe565b60405161013f91906121c2565b60405180910390f35b610162600480360381019061015d9190611b56565b610490565b60405161016f9190612140565b60405180910390f35b610192600480360381019061018d9190611a87565b610515565b005b6101ae60048036038101906101a99190611981565b61062d565b005b6101ca60048036038101906101c59190611981565b61068d565b005b6101e660048036038101906101e19190611b56565b6106ad565b6040516101f39190612140565b60405180910390f35b6102166004803603810190610211919061191c565b61075f565b604051610223919061240b565b60405180910390f35b610234610817565b60405161024191906121c2565b60405180910390f35b610264600480360381019061025f9190611a4b565b6108a9565b005b610280600480360381019061027b91906119d0565b6108bf565b005b61029c60048036038101906102979190611b56565b610921565b6040516102a991906121c2565b60405180910390f35b6102ba610a0e565b6040516102c7919061240b565b60405180910390f35b6102ea60048036038101906102e59190611b15565b610a14565b005b61030660048036038101906103019190611945565b610a47565b60405161031391906121a7565b60405180910390f35b60007f80ac58cd000000000000000000000000000000000000000000000000000000007bffffffffffffffffffffffffffffffffffffffffffffffffffffffff1916827bffffffffffffffffffffffffffffffffffffffffffffffffffffffff191614806103e757507f5b5e139f000000000000000000000000000000000000000000000000000000007bffffffffffffffffffffffffffffffffffffffffffffffffffffffff1916827bffffffffffffffffffffffffffffffffffffffffffffffffffffffff1916145b806103f757506103f682610c13565b5b9050919050565b60606000805461040d9061262f565b80601f01602080910402602001604051908101604052809291908181526020018280546104399061262f565b80156104865780601f1061045b57610100808354040283529160200191610486565b820191906000526020600020905b81548152906001019060200180831161046957829003601f168201915b5050505050905090565b600061049b82610c7d565b6104da576040517f08c379a00000000000000000000000000000000000000000000000000000000081526004016104d19061236b565b60405180910390fd5b6004600083815260200190815260200160002060009054906101000a900473ffffffffffffffffffffffffffffffffffffffff169050919050565b6000610520826106ad565b90508073ffffffffffffffffffffffffffffffffffffffff168373ffffffffffffffffffffffffffffffffffffffff161415610591576040517f08c379a0000000000000000000000000000000000000000000000000000000008152600401610588906123cb565b60405180910390fd5b8073ffffffffffffffffffffffffffffffffffffffff166105b0610ce9565b73ffffffffffffffffffffffffffffffffffffffff1614806105df57506105de816105d9610ce9565b610a47565b5b61061e576040517f08c379a0000000000000000000000000000000000000000000000000000000008152600401610615906122eb565b60405180910390fd5b6106288383610cf1565b505050565b61063e610638610ce9565b82610daa565b61067d576040517f08c379a0000000000000000000000000000000000000000000000000000000008152600401610674906123eb565b60405180910390fd5b610688838383610e88565b505050565b6106a8838383604051806020016040528060008152506108bf565b505050565b6000806002600084815260200190815260200160002060009054906101000a900473ffffffffffffffffffffffffffffffffffffffff169050600073ffffffffffffffffffffffffffffffffffffffff168173ffffffffffffffffffffffffffffffffffffffff161415610756576040517f08c379a000000000000000000000000000000000000000000000000000000000815260040161074d9061232b565b60405180910390fd5b80915050919050565b60008073ffffffffffffffffffffffffffffffffffffffff168273ffffffffffffffffffffffffffffffffffffffff1614156107d0576040517f08c379a00000000000000000000000000000000000000000000000000000000081526004016107c79061230b565b60405180910390fd5b600360008373ffffffffffffffffffffffffffffffffffffffff1673ffffffffffffffffffffffffffffffffffffffff168152602001908152602001600020549050919050565b6060600180546108269061262f565b80601f01602080910402602001604051908101604052809291908181526020018280546108529061262f565b801561089f5780601f106108745761010080835404028352916020019161089f565b820191906000526020600020905b81548152906001019060200180831161088257829003601f168201915b5050505050905090565b6108bb6108b4610ce9565b83836110e4565b5050565b6108d06108ca610ce9565b83610daa565b61090f576040517f08c379a0000000000000000000000000000000000000000000000000000000008152600401610906906123eb565b60405180910390fd5b61091b84848484611251565b50505050565b606061092c82610c7d565b61096b576040517f08c379a00000000000000000000000000000000000000000000000000000000081526004016109629061238b565b60405180910390fd5b6007600083815260200190815260200160002080546109899061262f565b80601f01602080910402602001604051908101604052809291908181526020018280546109b59061262f565b8015610a025780601f106109d757610100808354040283529160200191610a02565b820191906000526020600020905b8154815290600101906020018083116109e557829003601f168201915b50505050509050919050565b60065481565b610a20336006546112ad565b610a2c600654826112cb565b60066000815480929190610a3f90612661565b919050555050565b6000600560008473ffffffffffffffffffffffffffffffffffffffff1673ffffffffffffffffffffffffffffffffffffffff16815260200190815260200160002060008373ffffffffffffffffffffffffffffffffffffffff1673ffffffffffffffffffffffffffffffffffffffff16815260200190815260200160002060009054906101000a900460ff16905092915050565b610b738282604051602401610af1929190612214565b6040516020818303038152906040527f4b5c4277000000000000000000000000000000000000000000000000000000007bffffffffffffffffffffffffffffffffffffffffffffffffffffffff19166020820180517bffffffffffffffffffffffffffffffffffffffffffffffffffffffff838183161783525050505061133f565b5050565b610c0f8282604051602401610b8d9291906121e4565b6040516020818303038152906040527f319af333000000000000000000000000000000000000000000000000000000007bffffffffffffffffffffffffffffffffffffffffffffffffffffffff19166020820180517bffffffffffffffffffffffffffffffffffffffffffffffffffffffff838183161783525050505061133f565b5050565b60007f01ffc9a7000000000000000000000000000000000000000000000000000000007bffffffffffffffffffffffffffffffffffffffffffffffffffffffff1916827bffffffffffffffffffffffffffffffffffffffffffffffffffffffff1916149050919050565b60008073ffffffffffffffffffffffffffffffffffffffff166002600084815260200190815260200160002060009054906101000a900473ffffffffffffffffffffffffffffffffffffffff1673ffffffffffffffffffffffffffffffffffffffff1614159050919050565b600033905090565b816004600083815260200190815260200160002060006101000a81548173ffffffffffffffffffffffffffffffffffffffff021916908373ffffffffffffffffffffffffffffffffffffffff160217905550808273ffffffffffffffffffffffffffffffffffffffff16610d64836106ad565b73ffffffffffffffffffffffffffffffffffffffff167f8c5be1e5ebec7d5bd14f71427d1e84f3dd0314c0f7b2291e5b200ac8c7c3b92560405160405180910390a45050565b6000610db582610c7d565b610df4576040517f08c379a0000000000000000000000000000000000000000000000000000000008152600401610deb906122cb565b60405180910390fd5b6000610dff836106ad565b90508073ffffffffffffffffffffffffffffffffffffffff168473ffffffffffffffffffffffffffffffffffffffff161480610e6e57508373ffffffffffffffffffffffffffffffffffffffff16610e5684610490565b73ffffffffffffffffffffffffffffffffffffffff16145b80610e7f5750610e7e8185610a47565b5b91505092915050565b8273ffffffffffffffffffffffffffffffffffffffff16610ea8826106ad565b73ffffffffffffffffffffffffffffffffffffffff1614610efe576040517f08c379a0000000000000000000000000000000000000000000000000000000008152600401610ef5906123ab565b60405180910390fd5b600073ffffffffffffffffffffffffffffffffffffffff168273ffffffffffffffffffffffffffffffffffffffff161415610f6e576040517f08c379a0000000000000000000000000000000000000000000000000000000008152600401610f659061228b565b60405180910390fd5b610f79838383611368565b610f84600082610cf1565b6001600360008573ffffffffffffffffffffffffffffffffffffffff1673ffffffffffffffffffffffffffffffffffffffff1681526020019081526020016000206000828254610fd49190612545565b925050819055506001600360008473ffffffffffffffffffffffffffffffffffffffff1673ffffffffffffffffffffffffffffffffffffffff168152602001908152602001600020600082825461102b91906124ef565b92505081905550816002600083815260200190815260200160002060006101000a81548173ffffffffffffffffffffffffffffffffffffffff021916908373ffffffffffffffffffffffffffffffffffffffff160217905550808273ffffffffffffffffffffffffffffffffffffffff168473ffffffffffffffffffffffffffffffffffffffff167fddf252ad1be2c89b69c2b068fc378daa952ba7f163c4a11628f55a4df523b3ef60405160405180910390a4505050565b8173ffffffffffffffffffffffffffffffffffffffff168373ffffffffffffffffffffffffffffffffffffffff161415611153576040517f08c379a000000000000000000000000000000000000000000000000000000000815260040161114a906122ab565b60405180910390fd5b80600560008573ffffffffffffffffffffffffffffffffffffffff1673ffffffffffffffffffffffffffffffffffffffff16815260200190815260200160002060008473ffffffffffffffffffffffffffffffffffffffff1673ffffffffffffffffffffffffffffffffffffffff16815260200190815260200160002060006101000a81548160ff0219169083151502179055508173ffffffffffffffffffffffffffffffffffffffff168373ffffffffffffffffffffffffffffffffffffffff167f17307eab39ab6107e8899845ad3d59bd9653f200f220920489ca2b5937696c318360405161124491906121a7565b60405180910390a3505050565b61125c848484610e88565b6112688484848461136d565b6112a7576040517f08c379a000000000000000000000000000000000000000000000000000000000815260040161129e9061224b565b60405180910390fd5b50505050565b6112c7828260405180602001604052806000815250611504565b5050565b6112d482610c7d565b611313576040517f08c379a000000000000000000000000000000000000000000000000000000000815260040161130a9061238b565b60405180910390fd5b8060076000848152602001908152602001600020908051906020019061133a929190611740565b505050565b60008151905060006a636f6e736f6c652e6c6f679050602083016000808483855afa5050505050565b505050565b600061138e8473ffffffffffffffffffffffffffffffffffffffff1661155f565b156114f7578373ffffffffffffffffffffffffffffffffffffffff1663150b7a026113b7610ce9565b8786866040518563ffffffff1660e01b81526004016113d9949392919061215b565b602060405180830381600087803b1580156113f357600080fd5b505af192505050801561142457506040513d601f19601f820116820180604052508101906114219190611aec565b60015b6114a7573d8060008114611454576040519150601f19603f3d011682016040523d82523d6000602084013e611459565b606091505b5060008151141561149f576040517f08c379a00000000000000000000000000000000000000000000000000000000081526004016114969061224b565b60405180910390fd5b805181602001fd5b63150b7a0260e01b7bffffffffffffffffffffffffffffffffffffffffffffffffffffffff1916817bffffffffffffffffffffffffffffffffffffffffffffffffffffffff1916149150506114fc565b600190505b949350505050565b61150e8383611572565b61151b600084848461136d565b61155a576040517f08c379a00000000000000000000000000000000000000000000000000000000081526004016115519061224b565b60405180910390fd5b505050565b600080823b905060008111915050919050565b600073ffffffffffffffffffffffffffffffffffffffff168273ffffffffffffffffffffffffffffffffffffffff1614156115e2576040517f08c379a00000000000000000000000000000000000000000000000000000000081526004016115d99061234b565b60405180910390fd5b6115eb81610c7d565b1561162b576040517f08c379a00000000000000000000000000000000000000000000000000000000081526004016116229061226b565b60405180910390fd5b61163760008383611368565b6001600360008473ffffffffffffffffffffffffffffffffffffffff1673ffffffffffffffffffffffffffffffffffffffff168152602001908152602001600020600082825461168791906124ef565b92505081905550816002600083815260200190815260200160002060006101000a81548173ffffffffffffffffffffffffffffffffffffffff021916908373ffffffffffffffffffffffffffffffffffffffff160217905550808273ffffffffffffffffffffffffffffffffffffffff16600073ffffffffffffffffffffffffffffffffffffffff167fddf252ad1be2c89b69c2b068fc378daa952ba7f163c4a11628f55a4df523b3ef60405160405180910390a45050565b82805461174c9061262f565b90600052602060002090601f01602090048101928261176e57600085556117b5565b82601f1061178757805160ff19168380011785556117b5565b828001600101855582156117b5579182015b828111156117b4578251825591602001919060010190611799565b5b5090506117c291906117c6565b5090565b5b808211156117df5760008160009055506001016117c7565b5090565b60006117f66117f184612457565b612426565b90508281526020810184848401111561180e57600080fd5b6118198482856125ed565b509392505050565b600061183461182f84612487565b612426565b90508281526020810184848401111561184c57600080fd5b6118578482856125ed565b509392505050565b60008135905061186e81612748565b92915050565b6000813590506118838161275f565b92915050565b60008135905061189881612776565b92915050565b6000815190506118ad81612776565b92915050565b600082601f8301126118c457600080fd5b81356118d48482602086016117e3565b91505092915050565b600082601f8301126118ee57600080fd5b81356118fe848260208601611821565b91505092915050565b6000813590506119168161278d565b92915050565b60006020828403121561192e57600080fd5b600061193c8482850161185f565b91505092915050565b6000806040838503121561195857600080fd5b60006119668582860161185f565b92505060206119778582860161185f565b9150509250929050565b60008060006060848603121561199657600080fd5b60006119a48682870161185f565b93505060206119b58682870161185f565b92505060406119c686828701611907565b9150509250925092565b600080600080608085870312156119e657600080fd5b60006119f48782880161185f565b9450506020611a058782880161185f565b9350506040611a1687828801611907565b925050606085013567ffffffffffffffff811115611a3357600080fd5b611a3f878288016118b3565b91505092959194509250565b60008060408385031215611a5e57600080fd5b6000611a6c8582860161185f565b9250506020611a7d85828601611874565b9150509250929050565b60008060408385031215611a9a57600080fd5b6000611aa88582860161185f565b9250506020611ab985828601611907565b9150509250929050565b600060208284031215611ad557600080fd5b6000611ae384828501611889565b91505092915050565b600060208284031215611afe57600080fd5b6000611b0c8482850161189e565b91505092915050565b600060208284031215611b2757600080fd5b600082013567ffffffffffffffff811115611b4157600080fd5b611b4d848285016118dd565b91505092915050565b600060208284031215611b6857600080fd5b6000611b7684828501611907565b91505092915050565b611b8881612579565b82525050565b611b978161258b565b82525050565b6000611ba8826124b7565b611bb281856124cd565b9350611bc28185602086016125fc565b611bcb81612737565b840191505092915050565b6000611be1826124c2565b611beb81856124de565b9350611bfb8185602086016125fc565b611c0481612737565b840191505092915050565b6000611c1c6032836124de565b91507f4552433732313a207472616e7366657220746f206e6f6e20455243373231526560008301527f63656976657220696d706c656d656e74657200000000000000000000000000006020830152604082019050919050565b6000611c82601c836124de565b91507f4552433732313a20746f6b656e20616c7265616479206d696e746564000000006000830152602082019050919050565b6000611cc26024836124de565b91507f4552433732313a207472616e7366657220746f20746865207a65726f2061646460008301527f72657373000000000000000000000000000000000000000000000000000000006020830152604082019050919050565b6000611d286019836124de565b91507f4552433732313a20617070726f766520746f2063616c6c6572000000000000006000830152602082019050919050565b6000611d68602c836124de565b91507f4552433732313a206f70657261746f7220717565727920666f72206e6f6e657860008301527f697374656e7420746f6b656e00000000000000000000000000000000000000006020830152604082019050919050565b6000611dce6038836124de565b91507f4552433732313a20617070726f76652063616c6c6572206973206e6f74206f7760008301527f6e6572206e6f7220617070726f76656420666f7220616c6c00000000000000006020830152604082019050919050565b6000611e34602a836124de565b91507f4552433732313a2062616c616e636520717565727920666f7220746865207a6560008301527f726f2061646472657373000000000000000000000000000000000000000000006020830152604082019050919050565b6000611e9a6029836124de565b91507f4552433732313a206f776e657220717565727920666f72206e6f6e657869737460008301527f656e7420746f6b656e00000000000000000000000000000000000000000000006020830152604082019050919050565b6000611f006020836124de565b91507f4552433732313a206d696e7420746f20746865207a65726f20616464726573736000830152602082019050919050565b6000611f40602c836124de565b91507f4552433732313a20617070726f76656420717565727920666f72206e6f6e657860008301527f697374656e7420746f6b656e00000000000000000000000000000000000000006020830152604082019050919050565b6000611fa6602c836124de565b91507f4552433732314d657461646174613a2055524920736574206f66206e6f6e657860008301527f697374656e7420746f6b656e00000000000000000000000000000000000000006020830152604082019050919050565b600061200c6029836124de565b91507f4552433732313a207472616e73666572206f6620746f6b656e2074686174206960008301527f73206e6f74206f776e00000000000000000000000000000000000000000000006020830152604082019050919050565b60006120726021836124de565b91507f4552433732313a20617070726f76616c20746f2063757272656e74206f776e6560008301527f72000000000000000000000000000000000000000000000000000000000000006020830152604082019050919050565b60006120d86031836124de565b91507f4552433732313a207472616e736665722063616c6c6572206973206e6f74206f60008301527f776e6572206e6f7220617070726f7665640000000000000000000000000000006020830152604082019050919050565b61213a816125e3565b82525050565b60006020820190506121556000830184611b7f565b92915050565b60006080820190506121706000830187611b7f565b61217d6020830186611b7f565b61218a6040830185612131565b818103606083015261219c8184611b9d565b905095945050505050565b60006020820190506121bc6000830184611b8e565b92915050565b600060208201905081810360008301526121dc8184611bd6565b905092915050565b600060408201905081810360008301526121fe8185611bd6565b905061220d6020830184611b7f565b9392505050565b6000604082019050818103600083015261222e8185611bd6565b905081810360208301526122428184611bd6565b90509392505050565b6000602082019050818103600083015261226481611c0f565b9050919050565b6000602082019050818103600083015261228481611c75565b9050919050565b600060208201905081810360008301526122a481611cb5565b9050919050565b600060208201905081810360008301526122c481611d1b565b9050919050565b600060208201905081810360008301526122e481611d5b565b9050919050565b6000602082019050818103600083015261230481611dc1565b9050919050565b6000602082019050818103600083015261232481611e27565b9050919050565b6000602082019050818103600083015261234481611e8d565b9050919050565b6000602082019050818103600083015261236481611ef3565b9050919050565b6000602082019050818103600083015261238481611f33565b9050919050565b600060208201905081810360008301526123a481611f99565b9050919050565b600060208201905081810360008301526123c481611fff565b9050919050565b600060208201905081810360008301526123e481612065565b9050919050565b60006020820190508181036000830152612404816120cb565b9050919050565b60006020820190506124206000830184612131565b92915050565b6000604051905081810181811067ffffffffffffffff8211171561244d5761244c612708565b5b8060405250919050565b600067ffffffffffffffff82111561247257612471612708565b5b601f19601f8301169050602081019050919050565b600067ffffffffffffffff8211156124a2576124a1612708565b5b601f19601f8301169050602081019050919050565b600081519050919050565b600081519050919050565b600082825260208201905092915050565b600082825260208201905092915050565b60006124fa826125e3565b9150612505836125e3565b9250827fffffffffffffffffffffffffffffffffffffffffffffffffffffffffffffffff0382111561253a576125396126aa565b5b828201905092915050565b6000612550826125e3565b915061255b836125e3565b92508282101561256e5761256d6126aa565b5b828203905092915050565b6000612584826125c3565b9050919050565b60008115159050919050565b60007fffffffff0000000000000000000000000000000000000000000000000000000082169050919050565b600073ffffffffffffffffffffffffffffffffffffffff82169050919050565b6000819050919050565b82818337600083830152505050565b60005b8381101561261a5780820151818401526020810190506125ff565b83811115612629576000848401525b50505050565b6000600282049050600182168061264757607f821691505b6020821081141561265b5761265a6126d9565b5b50919050565b600061266c826125e3565b91507fffffffffffffffffffffffffffffffffffffffffffffffffffffffffffffffff82141561269f5761269e6126aa565b5b600182019050919050565b7f4e487b7100000000000000000000000000000000000000000000000000000000600052601160045260246000fd5b7f4e487b7100000000000000000000000000000000000000000000000000000000600052602260045260246000fd5b7f4e487b7100000000000000000000000000000000000000000000000000000000600052604160045260246000fd5b6000601f19601f8301169050919050565b61275181612579565b811461275c57600080fd5b50565b6127688161258b565b811461277357600080fd5b50565b61277f81612597565b811461278a57600080fd5b50565b612796816125e3565b81146127a157600080fd5b5056fea264697066735822122009bae8015efcbb6aff80f1146366308dca10746102eb4911e21e2826b571450b64736f6c63430008000033",
  "linkReferences": {},
  "deployedLinkReferences": {}
}